:100000000C942A000C943F000C943F000C943F0089
:100010000C943F000C943F000C943F000C943F0064
:100020000C943F000C943F000C943F000C943F0054
:100030000C943F000C943F000C943F000C943F0044
:100040000C943F000C943F000C943F000C943F0034
:100050000C943F0011241FBECFE5D8E0DEBFCDBF1A
:1000600011E0A0E6B0E0E6EEF8E002C005900D92E7
:10007000AA33B107D9F70E94F4020C9471040C94CE
:100080000000CF93C82F40E061E080E00E94A00113
:100090006C2F82E00E94ED0041E061E081E00E946F
:1000A000A0018FEC97E00197F1F700C0000040E05D
:1000B00061E081E00E94A0018FEC97E00197F1F7E9
:1000C00000C00000CF9108956FEF82E00E94D7003A
:1000D00041E061E080E00E94030141E061E081E0F5
:1000E0000E9403012FE788E391E021508040904077
:1000F000E1F700C0000088E30E9441008CE00E940C
:10010000410081E00E9441008FEC97E00197F1F7F8
:1001100000C0000086E00E9441000895CF93C82FE0
:1001200041E061E080E00E94A0016C2F82E00E942B
:10013000ED0041E061E081E00E94A0018FEC97E0DA
:100140000197F1F700C0000040E061E081E00E940B
:10015000A0018FEC97E00197F1F700C00000CF916C
:100160000895815019F0813031F008958FE7860F9E
:100170000E94410008958FEB860F0E944100089570
:100180000F931F93CF938C01C0E003C00E948E0099
:10019000CF5FF801EC0FF11D80818111F7CFCF9176
:1001A0001F910F91089581E00E94410008958130D0
:1001B00049F028F0823049F0833051F00CC06ABB1E
:1001C00080E0089567BB80E0089564BB80E00895F7
:1001D00061BB80E0089581E00895813049F028F006
:1001E000823049F0833051F00CC06BBB80E0089541
:1001F00068BB80E0089565BB80E0089562BB80E045
:10020000089581E00895883008F08EC0613049F18A
:1002100038F0623009F446C0633009F464C086C027
:10022000413071F44AB321E030E0B90102C0660FF9
:10023000771F8A95E2F7CB01842B8ABB80E0089573
:10024000411176C04AB321E030E0B90102C0660F27
:10025000771F8A95E2F7CB01809584238ABB80E0E3
:100260000895413071F447B321E030E0B90102C094
:10027000660F771F8A95E2F7CB01842B87BB80E05E
:100280000895411157C047B321E030E0B90102C0E1
:10029000660F771F8A95E2F7CB018095842387BB91
:1002A00080E00895413071F444B321E030E0B901B9
:1002B00002C0660F771F8A95E2F7CB01842B84BBBF
:1002C00080E00895411138C044B321E030E0B90125
:1002D00002C0660F771F8A95E2F7CB0180958423D1
:1002E00084BB80E00895413071F441B321E030E0F7
:1002F000B90102C0660F771F8A95E2F7CB01842B04
:1003000081BB80E00895411119C041B321E030E084
:10031000B90102C0660F771F8A95E2F7CB0180957D
:10032000842381BB80E0089581E0089581E00895F1
:1003300080E0089580E0089580E0089580E00895C9
:10034000883008F08EC0613049F138F0623009F42D
:1003500046C0633009F464C086C0413071F44BB3C9
:1003600021E030E0B90102C0660F771F8A95E2F7FD
:10037000CB01842B8BBB80E00895411176C04BB339
:1003800021E030E0B90102C0660F771F8A95E2F7DD
:10039000CB01809584238BBB80E00895413071F4BC
:1003A00048B321E030E0B90102C0660F771F8A959B
:1003B000E2F7CB01842B88BB80E00895411157C040
:1003C00048B321E030E0B90102C0660F771F8A957B
:1003D000E2F7CB018095842388BB80E0089541300B
:1003E00071F445B321E030E0B90102C0660F771F18
:1003F0008A95E2F7CB01842B85BB80E008954111FB
:1004000038C045B321E030E0B90102C0660F771F64
:100410008A95E2F7CB018095842385BB80E008951F
:10042000413071F442B321E030E0B90102C0660FFF
:10043000771F8A95E2F7CB01842B82BB80E0089579
:10044000411119C042B321E030E0B90102C0660F8A
:10045000771F8A95E2F7CB018095842382BB80E0E9
:10046000089581E0089581E0089580E0089580E096
:10047000089580E0089580E008956830C0F58130E7
:1004800091F028F08230D9F0833029F132C089B35D
:1004900090E002C0959587956A95E2F78170FA0120
:1004A000808380E0089586B390E002C0959587959B
:1004B0006A95E2F78170FA01808380E0089583B342
:1004C00090E002C0959587956A95E2F78170FA01F0
:1004D000808380E0089580B390E002C09595879571
:1004E0006A95E2F78170FA01808380E0089581E0E7
:1004F000089581E00895CF93C0E007C040E063E035
:1005000084E08C0F0E940301CF5FC430B8F3C0E0D9
:1005100006C041E063E08C2F0E940301CF5FC4302E
:10052000C0F3C0E006C041E063E08C2F0E94A00150
:10053000CF5FC430C0F3C0E007C041E063E084E0B7
:100540008C0F0E94A001CF5FC430B8F3CF91089503
:10055000FF920F931F93CF93DF931F92CDB7DEB718
:100560000F2EF6E6FF2EF02D00E034C040E063E0F1
:10057000802F0E94A00114E025C0AE014F5F5F4FA5
:10058000612F83E00E943D028981811110C0802F7C
:1005900090E0212F30E024503109880F991F880FF7
:1005A000991F805A9F4FFC01E20FF31FF08080B328
:1005B00090E0012E02C0959587950A94E2F780FF9E
:1005C000F6CF1F5F1830C8F241E063E0802F0E9431
:1005D000A0010F5F043050F28F2D0F90DF91CF916B
:1005E0001F910F91FF900895CF92DF92EF92FF92AB
:1005F0000F931F93CF93DF93CDB7DEB7EE970FB670
:10060000F894DEBF0FBECDBF0E9464000E947B0243
:1006100086E3E0E7F0E0DE01119601900D928A9505
:10062000E1F788E0E6EAF0E0DE01D79601900D926E
:100630008A95E1F700E010E019C07801EE0CFF1C8C
:10064000EE0CFF1C21E030E02C0F3D1FE20EF31EEC
:1006500041E060E0F70180AD0E94030141E060E00D
:10066000F70181AD0E9403010F5F1F4F023011059A
:1006700024F30FEF1FEF0F3FFFEF1F0709F05CC0E0
:100680000E94D3008EEA90E00E94C0000E94A8025F
:100690008636E1F3E12CF12C48C0F701EE0FFF1F85
:1006A0009F01220F331F220F331F220F331FE20F30
:1006B000F31F21E030E02C0F3D1FE20FF31F908964
:1006C000891330C028C00E94D30087EB90E00E94BD
:1006D000C0000E94A8028636E1F3F701EE0FFF1F6B
:1006E0009F01220F331F220F331F220F331FE20FF0
:1006F000F31F21E030E02C0F3D1FE20FF31F918923
:100700008917C9F032E0C316D10409F4D3C08FEFC2
:10071000C81AD80A02C0C12CD12C93E0C916D10442
:1007200094F20AC0EFEFEE1AFE0AF3E0EF16F104BE
:100730000CF4B3CF01C087010F3F2FEF120709F46C
:100740009ACF0E94D30080ED90E00E94C000000F7D
:10075000111FC801880F991F880F991F880F991FB3
:10076000800F911FE1E0F0E0EC0FFD1F8E0F9F1F47
:100770000E94C000FFEF29E638E1F15020403040F0
:10078000E1F700C000000E94D30089ED90E00E94D4
:10079000C00061E082E00E94B10081EE90E00E9422
:1007A000C0000E94A8029FEC980F9230D0F790E012
:1007B0008C01015311090E94D30089EE90E00E9440
:1007C000C00061E082E00E94B1008FEE90E00E94E4
:1007D000C0000E94A8029FEC980F9230D0F781339E
:1007E00041F50E94D30087EF90E00E94C00061E0D5
:1007F00082E00E94B10081E091E00E94C0000E946E
:10080000A8029FEC980F9230D0F741E0823309F0B4
:1008100040E0C801880F991F880F991FE1E0F0E0C0
:10082000EC0FFD1FE80FF91F60E080AD0E94A001F2
:1008300029C0823339F50E94D3008AE091E00E94FA
:10084000C00061E082E00E94B10086E191E00E9478
:10085000C0000E94A8029FEC980F9230D0F741E0B0
:10086000823309F040E0C801880F991F880F991F53
:10087000E1E0F0E0EC0FFD1FE80FF91F60E081AD53
:100880000E94A0010E94D30081E291E00E94C0007A
:1008900061E082E00E94B1008CE291E00E94C00021
:1008A0000E94A8029FEC980F9230D0F7813309F094
:1008B0006ACFDFCE0E94D30082EC90E00E94C0009D
:1008C00080E090E0EE960FB6F894DEBF0FBECDBF8D
:1008D000DF91CF911F910F91FF90EF90DF90CF901C
:0608E0000895F894FFCF1B
:1008E6003738392F3435362A3132332D63303D2BA4
:1008F6006D6F68616D656400000000000000000017
:1009060035366B617265656D000000000000000001
:1009160000003738616C690000000000000000002C
:100926000000000039330000000100000203656E7C
:1009360074657220696400656E74657220706173F7
:10094600730073797374656D20636C6F73656400EF
:1009560077656C636F6D652000726F6F6D20203157
:1009660000726F6F6D20203200312066616E00329A
:10097600206C6967687400312066616E206F666658
:1009860000322066616E206F6E0031206C696768E8
:1009960074206F66660032206C69676874206F6E1B
:1009A6000031207369676E206F75740032206B65A5
:0A09B6006570207369676E656400C8
:00000001FF
