S015000046696E616C5F70726F6A6563742E73726563CF
S11300000C942A000C9447000C9447000C9447006D
S11300100C9447000C9447000C9447000C94470040
S11300200C9447000C9447000C9447000C94470030
S11300300C9447000C9447000C9447000C94470020
S11300400C9447000C9447000C9447000C94470010
S11300500C94470011241FBECFE5D8E0DEBFCDBF0E
S113006011E0A0E6B0E0EEE3F7E002C005900D92E7
S1130070A034B107D9F721E0A0E4B1E001C01D929A
S1130080A634B207E1F70E946B020C949D030C9412
S11300900000813049F028F0823049F0833051F07B
S11300A00CC06ABB80E0089567BB80E0089564BB20
S11300B080E0089561BB80E0089581E00895813077
S11300C049F028F0823049F0833051F00CC06BBB0A
S11300D080E0089568BB80E0089565BB80E00895E2
S11300E062BB80E0089581E00895883008F08EC0F6
S11300F0613049F138F0623009F446C0633009F4E4
S113010064C086C0413071F44AB321E030E0B901E3
S113011002C0660F771F8A95E2F7CB01842B8ABB56
S113012080E00895411176C04AB321E030E0B9017E
S113013002C0660F771F8A95E2F7CB01809584236E
S11301408ABB80E00895413071F447B321E030E088
S1130150B90102C0660F771F8A95E2F7CB01842BA1
S113016087BB80E00895411157C047B321E030E0D8
S1130170B90102C0660F771F8A95E2F7CB0180951B
S1130180842387BB80E00895413071F444B321E0B7
S113019030E0B90102C0660F771F8A95E2F7CB0100
S11301A0842B84BB80E00895411138C044B321E01E
S11301B030E0B90102C0660F771F8A95E2F7CB01E0
S11301C08095842384BB80E00895413071F441B369
S11301D021E030E0B90102C0660F771F8A95E2F78B
S11301E0CB01842B81BB80E00895411119C041B338
S11301F021E030E0B90102C0660F771F8A95E2F76B
S1130200CB018095842381BB80E0089581E008952B
S113021081E0089580E0089580E0089580E00895E5
S113022080E00895883008F08EC0613049F138F0DC
S1130230623009F446C0633009F464C086C04130BA
S113024071F44BB321E030E0B90102C0660F771FAF
S11302508A95E2F7CB01842B8BBB80E00895411192
S113026076C04BB321E030E0B90102C0660F771FBE
S11302708A95E2F7CB01809584238BBB80E00895B7
S1130280413071F448B321E030E0B90102C0660F97
S1130290771F8A95E2F7CB01842B88BB80E0089511
S11302A0411157C048B321E030E0B90102C0660FE4
S11302B0771F8A95E2F7CB018095842388BB80E081
S11302C00895413071F445B321E030E0B90102C032
S11302D0660F771F8A95E2F7CB01842B85BB80E0FC
S11302E00895411138C045B321E030E0B90102C09E
S11302F0660F771F8A95E2F7CB018095842385BB2F
S113030080E00895413071F442B321E030E0B90156
S113031002C0660F771F8A95E2F7CB01842B82BB5C
S113032080E00895411119C042B321E030E0B901E1
S113033002C0660F771F8A95E2F7CB01809584236C
S113034082BB80E0089581E0089581E0089580E013
S1130350089580E0089580E0089580E0089568306D
S1130360C0F5813091F028F08230D9F0833029F142
S113037032C089B390E002C0959587956A95E2F7FB
S11303808170FA01808380E0089586B390E002C012
S1130390959587956A95E2F78170FA01808380E0EC
S11303A0089583B390E002C0959587956A95E2F726
S11303B08170FA01808380E0089580B390E002C0E8
S11303C0959587956A95E2F78170FA01808380E0BC
S11303D0089581E0089581E00895CF93C0E007C0B7
S11303E040E062E084E08C0F0E947500CF5FC4306F
S11303F0B8F3C0E006C041E062E08C2F0E947500B3
S1130400CF5FC430C0F3C0E006C041E062E08C2F8F
S11304100E941201CF5FC430C0F3C0E007C041E0C6
S113042062E084E08C0F0E941201CF5FC430B8F305
S1130430CF910895FF920F931F93CF93DF931F9251
S1130440CDB7DEB70F2EF6E6FF2EF02D00E034C058
S113045040E062E0802F0E94120114E025C0AE014A
S11304604F5F5F4F612F82E00E94AF01898181114C
S113047010C0802F90E0212F30E024503109880FE4
S1130480991F880F991F805A9F4FFC01E20FF31F99
S1130490F08083B390E0012E02C0959587950A946D
S11304A0E2F780FFF6CF1F5F1830C8F241E062E048
S11304B0802F0E9412010F5F043050F28F2D0F9095
S11304C0DF91CF911F910F91FF9008950E941A021E
S11304D08636E1F308950E94ED010E947C036FEFDC
S11304E081E00E94490060E081E00E945F0040E0FA
S11304F063E080E00E94750041E063E081E00E94D7
S1130500750084E790E00E948A0387E990E00E94E6
S11305108A032FE38DE093E0215080409040E1F77F
S113052000C0000083EA90E00E948A030E946602F1
S113053080934401805D0E948603809144019091E0
S11305407300891709F4CCC090917200891709F4DB
S1130550C7C083EB90E00E948A03C7C08F5F80937B
S1130560450181EC90E00E948A030E946602809318
S1130570430184ED90E00E948A03809144019091AC
S11305807300891306C020914301909171002917CB
S1130590A1F090917200891306C09091430180915B
S11305A07000981751F089ED90E00E948A039091B1
S11305B0450184E3891B0E94860384E790E00E943E
S11305C08A038091440190917300891306C020919D
S11305D0430190917100291751F090917200891391
S11305E07FC09091430180917000981379C084E793
S11305F090E00E948A0382EE90E00E948A0380EFDA
S113060090E00E948A030E946602809342018EEF6A
S113061090E00E948A038AE091E00E948A030E948B
S113062066028093410185E191E00E948A0380E2A1
S113063091E00E948A030E94660280934001909197
S11306404201913019F0923031F1D1CF90914101B2
S1130650913039F4813029F441E061E00E941201C3
S1130660C6CF923041F4813031F441E061E080E062
S11306700E941201BCCF913041F4823031F440E049
S113068061E081E00E941201B2CF40E061E080E0CD
S11306900E941201ACCF90914101913041F481301C
S11306A031F441E061E082E00E941201A0CF923077
S11306B041F4813031F441E061E083E00E941201B1
S11306C096CF913039F4823029F440E061E00E9401
S11306D012018DCF40E061E083E00E94120187CFD8
S11306E080914501833008F439CF8BE291E00E9478
S11306F08A0380E090E0089580E28BB988E38AB9A8
S113070086E880BD83E389B910BC08958CB95D9BEC
S1130710FECF08950F931F93CF938C01C0E003C0C5
S11307200E948603CF5FF801EC0FF11D80818111D7
S1110730F7CFCF911F910F910895F894FFCF4A
S113073E0708092F0405062A0102032D63003D2B29
S113074E020102010D0A2A2A2A2A2A2A2A2A2A2AD6
S113075E2A2A2A2A2A2A2A2A2A2A2A2A2A2A2A2AE7
S113076E2A2A2A2A0D0A0057656C636F6D652120AB
S113077E0D0A00456E74657220596F7572204944D6
S113078E3A200053797374656D20436C6F736564FE
S113079E000D0A456E7465722050617373776F7223
S11307AE643A20002A0D0A20000D0A547279203A68
S11307BE20002031203A20524F4F4D20310D0A0097
S11307CE2032203A20524F4F4D20320D0A00203154
S11307DE203A204C4544200D0A002032203A20466F
S11307EE414E0D0A002031203A204F4E200D0A00B2
S11307FE2032203A204F46460D0A000D0A20537926
S113080E7374656D20436C6F736564202121000041
S9030000FC
